{"abi":[{"inputs":[],"name":"USDC","outputs":[{"internalType":"address","name":"","type":"address"}],"stateMutability":"view","type":"function"},{"inputs":[{"internalType":"address","name":"","type":"address"}],"name":"balances","outputs":[{"internalType":"uint256","name":"","type":"uint256"}],"stateMutability":"view","type":"function"},{"inputs":[{"internalType":"uint256","name":"amount","type":"uint256"},{"internalType":"address","name":"token_addrs","type":"address"}],"name":"deposit","outputs":[],"stateMutability":"payable","type":"function"},{"inputs":[{"internalType":"uint256","name":"amount","type":"uint256"}],"name":"witdraw","outputs":[],"stateMutability":"payable","type":"function"}],"bytecode":"6080604052600180546001600160a01b031916737079f3762805cff9c979a5bdc6f5648bcfee76c817905534801561003657600080fd5b506103b9806100466000396000f3fe60806040526004361061003f5760003560e01c806327e235e3146100445780636e553f651461008457806389a3027114610099578063b404930e146100d1575b600080fd5b34801561005057600080fd5b5061007161005f3660046102b5565b60006020819052908152604090205481565b6040519081526020015b60405180910390f35b6100976100923660046102d7565b6100e4565b005b3480156100a557600080fd5b506001546100b9906001600160a01b031681565b6040516001600160a01b03909116815260200161007b565b6100976100df366004610303565b61019a565b6001546040516323b872dd60e01b8152336004820152306024820152604481018490526000916001600160a01b0316906323b872dd906064016020604051808303816000875af115801561013c573d6000803e3d6000fd5b505050506040513d601f19601f82011682018060405250810190610160919061031c565b905060018115151461017157600080fd5b3360009081526020819052604081208054859290610190908490610354565b9091555050505050565b3360009081526020819052604090205481106101fc5760405162461bcd60e51b815260206004820152601e60248201527f796f7520646f206e6f74206861766520656e6f7567682062616c616e63650000604482015260640160405180910390fd5b336000908152602081905260408120805483929061021b90849061036c565b909155505060015460405163a9059cbb60e01b8152336004820152602481018390526001600160a01b039091169063a9059cbb906044016020604051808303816000875af1158015610271573d6000803e3d6000fd5b505050506040513d601f19601f82011682018060405250810190610295919061031c565b5050565b80356001600160a01b03811681146102b057600080fd5b919050565b6000602082840312156102c757600080fd5b6102d082610299565b9392505050565b600080604083850312156102ea57600080fd5b823591506102fa60208401610299565b90509250929050565b60006020828403121561031557600080fd5b5035919050565b60006020828403121561032e57600080fd5b815180151581146102d057600080fd5b634e487b7160e01b600052601160045260246000fd5b600082198211156103675761036761033e565b500190565b60008282101561037e5761037e61033e565b50039056fea2646970667358221220dcf83e4f8e1d0b138a039fcbb8e921bb6633cdf43e6c2c512b8d9cc025a74c5d64736f6c634300080d0033","bytecodeSha1":"64acd9e2a528404dd6c52da267fb5463adb6c5f0","compiler":{"evm_version":"istanbul","optimizer":{"enabled":true,"runs":200},"version":"0.8.13+commit.abaa5c0e"},"contractName":"ContractV1","language":"Solidity","natspec":{"kind":"dev","methods":{},"version":1},"opcodes":"PUSH1 0x80 PUSH1 0x40 MSTORE PUSH1 0x4 CALLDATASIZE LT PUSH2 0x3F JUMPI PUSH1 0x0 CALLDATALOAD PUSH1 0xE0 SHR DUP1 PUSH4 0x27E235E3 EQ PUSH2 0x44 JUMPI DUP1 PUSH4 0x6E553F65 EQ PUSH2 0x84 JUMPI DUP1 PUSH4 0x89A30271 EQ PUSH2 0x99 JUMPI DUP1 PUSH4 0xB404930E EQ PUSH2 0xD1 JUMPI JUMPDEST PUSH1 0x0 DUP1 REVERT JUMPDEST CALLVALUE DUP1 ISZERO PUSH2 0x50 JUMPI PUSH1 0x0 DUP1 REVERT JUMPDEST POP PUSH2 0x71 PUSH2 0x5F CALLDATASIZE PUSH1 0x4 PUSH2 0x2B5 JUMP JUMPDEST PUSH1 0x0 PUSH1 0x20 DUP2 SWAP1 MSTORE SWAP1 DUP2 MSTORE PUSH1 0x40 SWAP1 KECCAK256 SLOAD DUP2 JUMP JUMPDEST PUSH1 0x40 MLOAD SWAP1 DUP2 MSTORE PUSH1 0x20 ADD JUMPDEST PUSH1 0x40 MLOAD DUP1 SWAP2 SUB SWAP1 RETURN JUMPDEST PUSH2 0x97 PUSH2 0x92 CALLDATASIZE PUSH1 0x4 PUSH2 0x2D7 JUMP JUMPDEST PUSH2 0xE4 JUMP JUMPDEST STOP JUMPDEST CALLVALUE DUP1 ISZERO PUSH2 0xA5 JUMPI PUSH1 0x0 DUP1 REVERT JUMPDEST POP PUSH1 0x1 SLOAD PUSH2 0xB9 SWAP1 PUSH1 0x1 PUSH1 0x1 PUSH1 0xA0 SHL SUB AND DUP2 JUMP JUMPDEST PUSH1 0x40 MLOAD PUSH1 0x1 PUSH1 0x1 PUSH1 0xA0 SHL SUB SWAP1 SWAP2 AND DUP2 MSTORE PUSH1 0x20 ADD PUSH2 0x7B JUMP JUMPDEST PUSH2 0x97 PUSH2 0xDF CALLDATASIZE PUSH1 0x4 PUSH2 0x303 JUMP JUMPDEST PUSH2 0x19A JUMP JUMPDEST PUSH1 0x1 SLOAD PUSH1 0x40 MLOAD PUSH4 0x23B872DD PUSH1 0xE0 SHL DUP2 MSTORE CALLER PUSH1 0x4 DUP3 ADD MSTORE ADDRESS PUSH1 0x24 DUP3 ADD MSTORE PUSH1 0x44 DUP2 ADD DUP5 SWAP1 MSTORE PUSH1 0x0 SWAP2 PUSH1 0x1 PUSH1 0x1 PUSH1 0xA0 SHL SUB AND SWAP1 PUSH4 0x23B872DD SWAP1 PUSH1 0x64 ADD PUSH1 0x20 PUSH1 0x40 MLOAD DUP1 DUP4 SUB DUP2 PUSH1 0x0 DUP8 GAS CALL ISZERO DUP1 ISZERO PUSH2 0x13C JUMPI RETURNDATASIZE PUSH1 0x0 DUP1 RETURNDATACOPY RETURNDATASIZE PUSH1 0x0 REVERT JUMPDEST POP POP POP POP PUSH1 0x40 MLOAD RETURNDATASIZE PUSH1 0x1F NOT PUSH1 0x1F DUP3 ADD AND DUP3 ADD DUP1 PUSH1 0x40 MSTORE POP DUP2 ADD SWAP1 PUSH2 0x160 SWAP2 SWAP1 PUSH2 0x31C JUMP JUMPDEST SWAP1 POP PUSH1 0x1 DUP2 ISZERO ISZERO EQ PUSH2 0x171 JUMPI PUSH1 0x0 DUP1 REVERT JUMPDEST CALLER PUSH1 0x0 SWAP1 DUP2 MSTORE PUSH1 0x20 DUP2 SWAP1 MSTORE PUSH1 0x40 DUP2 KECCAK256 DUP1 SLOAD DUP6 SWAP3 SWAP1 PUSH2 0x190 SWAP1 DUP5 SWAP1 PUSH2 0x354 JUMP JUMPDEST SWAP1 SWAP2 SSTORE POP POP POP POP POP JUMP JUMPDEST CALLER PUSH1 0x0 SWAP1 DUP2 MSTORE PUSH1 0x20 DUP2 SWAP1 MSTORE PUSH1 0x40 SWAP1 KECCAK256 SLOAD DUP2 LT PUSH2 0x1FC JUMPI PUSH1 0x40 MLOAD PUSH3 0x461BCD PUSH1 0xE5 SHL DUP2 MSTORE PUSH1 0x20 PUSH1 0x4 DUP3 ADD MSTORE PUSH1 0x1E PUSH1 0x24 DUP3 ADD MSTORE PUSH32 0x796F7520646F206E6F74206861766520656E6F7567682062616C616E63650000 PUSH1 0x44 DUP3 ADD MSTORE PUSH1 0x64 ADD PUSH1 0x40 MLOAD DUP1 SWAP2 SUB SWAP1 REVERT JUMPDEST CALLER PUSH1 0x0 SWAP1 DUP2 MSTORE PUSH1 0x20 DUP2 SWAP1 MSTORE PUSH1 0x40 DUP2 KECCAK256 DUP1 SLOAD DUP4 SWAP3 SWAP1 PUSH2 0x21B SWAP1 DUP5 SWAP1 PUSH2 0x36C JUMP JUMPDEST SWAP1 SWAP2 SSTORE POP POP PUSH1 0x1 SLOAD PUSH1 0x40 MLOAD PUSH4 0xA9059CBB PUSH1 0xE0 SHL DUP2 MSTORE CALLER PUSH1 0x4 DUP3 ADD MSTORE PUSH1 0x24 DUP2 ADD DUP4 SWAP1 MSTORE PUSH1 0x1 PUSH1 0x1 PUSH1 0xA0 SHL SUB SWAP1 SWAP2 AND SWAP1 PUSH4 0xA9059CBB SWAP1 PUSH1 0x44 ADD PUSH1 0x20 PUSH1 0x40 MLOAD DUP1 DUP4 SUB DUP2 PUSH1 0x0 DUP8 GAS CALL ISZERO DUP1 ISZERO PUSH2 0x271 JUMPI RETURNDATASIZE PUSH1 0x0 DUP1 RETURNDATACOPY RETURNDATASIZE PUSH1 0x0 REVERT JUMPDEST POP POP POP POP PUSH1 0x40 MLOAD RETURNDATASIZE PUSH1 0x1F NOT PUSH1 0x1F DUP3 ADD AND DUP3 ADD DUP1 PUSH1 0x40 MSTORE POP DUP2 ADD SWAP1 PUSH2 0x295 SWAP2 SWAP1 PUSH2 0x31C JUMP JUMPDEST POP POP JUMP JUMPDEST DUP1 CALLDATALOAD PUSH1 0x1 PUSH1 0x1 PUSH1 0xA0 SHL SUB DUP2 AND DUP2 EQ PUSH2 0x2B0 JUMPI PUSH1 0x0 DUP1 REVERT JUMPDEST SWAP2 SWAP1 POP JUMP JUMPDEST PUSH1 0x0 PUSH1 0x20 DUP3 DUP5 SUB SLT ISZERO PUSH2 0x2C7 JUMPI PUSH1 0x0 DUP1 REVERT JUMPDEST PUSH2 0x2D0 DUP3 PUSH2 0x299 JUMP JUMPDEST SWAP4 SWAP3 POP POP POP JUMP JUMPDEST PUSH1 0x0 DUP1 PUSH1 0x40 DUP4 DUP6 SUB SLT ISZERO PUSH2 0x2EA JUMPI PUSH1 0x0 DUP1 REVERT JUMPDEST DUP3 CALLDATALOAD SWAP2 POP PUSH2 0x2FA PUSH1 0x20 DUP5 ADD PUSH2 0x299 JUMP JUMPDEST SWAP1 POP SWAP3 POP SWAP3 SWAP1 POP JUMP JUMPDEST PUSH1 0x0 PUSH1 0x20 DUP3 DUP5 SUB SLT ISZERO PUSH2 0x315 JUMPI PUSH1 0x0 DUP1 REVERT JUMPDEST POP CALLDATALOAD SWAP2 SWAP1 POP JUMP JUMPDEST PUSH1 0x0 PUSH1 0x20 DUP3 DUP5 SUB SLT ISZERO PUSH2 0x32E JUMPI PUSH1 0x0 DUP1 REVERT JUMPDEST DUP2 MLOAD DUP1 ISZERO ISZERO DUP2 EQ PUSH2 0x2D0 JUMPI PUSH1 0x0 DUP1 REVERT JUMPDEST PUSH4 0x4E487B71 PUSH1 0xE0 SHL PUSH1 0x0 MSTORE PUSH1 0x11 PUSH1 0x4 MSTORE PUSH1 0x24 PUSH1 0x0 REVERT JUMPDEST PUSH1 0x0 DUP3 NOT DUP3 GT ISZERO PUSH2 0x367 JUMPI PUSH2 0x367 PUSH2 0x33E JUMP JUMPDEST POP ADD SWAP1 JUMP JUMPDEST PUSH1 0x0 DUP3 DUP3 LT ISZERO PUSH2 0x37E JUMPI PUSH2 0x37E PUSH2 0x33E JUMP JUMPDEST POP SUB SWAP1 JUMP INVALID LOG2 PUSH5 0x6970667358 0x22 SLT KECCAK256 0xDC 0xF8 RETURNDATACOPY 0x4F DUP15 SAR SIGNEXTEND SGT DUP11 SUB SWAP16 0xCB 0xB8 0xE9 0x21 0xBB PUSH7 0x33CDF43E6C2C51 0x2B DUP14 SWAP13 0xC0 0x25 0xA7 0x4C 0x5D PUSH5 0x736F6C6343 STOP ADDMOD 0xD STOP CALLER ","sha1":"f10651bbf54d04bb4fe2fd1ee235e713e74e67cf","source":"// contracts/ContractV1.sol\n// SPDX-License-Identifier: MIT\npragma solidity ^0.8.0;\n\nimport \"@openzeppelin/contracts/token/ERC20/IERC20.sol\";\n\n\ncontract ContractV1 {\n    \n    mapping(address => uint256) public balances;\n    address public USDC = 0x7079f3762805CFf9C979a5bDC6f5648bCFEE76C8;\n    address constant admin = 0x2ba6e735C4f4e27aEE308c9a0e20921E853Ac0F6;\n\n    function deposit(uint256 amount, address token_addrs) public payable {\n\n        bool result = IERC20(USDC).transferFrom(msg.sender, address(this), amount);\n        require(result == true);\n        balances[msg.sender] += amount;\n    }\n\n    function witdraw(uint256 amount) public payable {\n\n        require(balances[msg.sender] > amount, 'you do not have enough balance');\n        balances[msg.sender] -= amount;\n        IERC20(USDC).transfer(msg.sender, amount);\n    }\n}\n","sourcePath":"contracts/contract_V1.sol","type":"contract","deployment":{"address":"0x079A3ac54E18Ab90F5C967386b5440dBA386d220","chainid":"4","blockHeight":10617650}}