{
  "abi": [
    {
      "inputs": [],
      "name": "USDC",
      "outputs": [
        {
          "internalType": "address",
          "name": "",
          "type": "address"
        }
      ],
      "stateMutability": "view",
      "type": "function"
    },
    {
      "inputs": [
        {
          "internalType": "address",
          "name": "",
          "type": "address"
        }
      ],
      "name": "balances",
      "outputs": [
        {
          "internalType": "uint256",
          "name": "",
          "type": "uint256"
        }
      ],
      "stateMutability": "view",
      "type": "function"
    },
    {
      "inputs": [
        {
          "internalType": "uint256",
          "name": "amount",
          "type": "uint256"
        },
        {
          "internalType": "address",
          "name": "token_addrs",
          "type": "address"
        }
      ],
      "name": "deposit",
      "outputs": [],
      "stateMutability": "payable",
      "type": "function"
    },
    {
      "inputs": [],
      "name": "getBalance",
      "outputs": [
        {
          "internalType": "uint256",
          "name": "",
          "type": "uint256"
        }
      ],
      "stateMutability": "view",
      "type": "function"
    },
    {
      "inputs": [
        {
          "internalType": "uint256",
          "name": "amount",
          "type": "uint256"
        }
      ],
      "name": "withdraw",
      "outputs": [],
      "stateMutability": "payable",
      "type": "function"
    }
  ],
  "bytecode": "6080604052600180546001600160a01b031916737079f3762805cff9c979a5bdc6f5648bcfee76c817905534801561003657600080fd5b50610425806100466000396000f3fe60806040526004361061004a5760003560e01c806312065fe01461004f57806327e235e3146100805780632e1a7d4d146100ad5780636e553f65146100c257806389a30271146100d5575b600080fd5b34801561005b57600080fd5b50336000908152602081905260409020545b6040519081526020015b60405180910390f35b34801561008c57600080fd5b5061006d61009b3660046102ff565b60006020819052908152604090205481565b6100c06100bb366004610321565b61010d565b005b6100c06100d036600461033a565b61022d565b3480156100e157600080fd5b506001546100f5906001600160a01b031681565b6040516001600160a01b039091168152602001610077565b33600090815260208190526040902054811061016f5760405162461bcd60e51b815260206004820152601e60248201527f796f7520646f206e6f74206861766520656e6f7567682062616c616e63650000604482015260640160405180910390fd5b336000908152602081905260408120805483929061018e90849061037c565b90915550506001546001600160a01b031663a9059cbb336101b0606485610393565b6101ba90856103b5565b6040516001600160e01b031960e085901b1681526001600160a01b03909216600483015260248201526044016020604051808303816000875af1158015610205573d6000803e3d6000fd5b505050506040513d601f19601f8201168201806040525081019061022991906103cd565b5050565b6001546040516323b872dd60e01b8152336004820152306024820152604481018490526000916001600160a01b0316906323b872dd906064016020604051808303816000875af1158015610285573d6000803e3d6000fd5b505050506040513d601f19601f820116820180604052508101906102a991906103cd565b90506001811515146102ba57600080fd5b33600090815260208190526040812080548592906102d99084906103b5565b9091555050505050565b80356001600160a01b03811681146102fa57600080fd5b919050565b60006020828403121561031157600080fd5b61031a826102e3565b9392505050565b60006020828403121561033357600080fd5b5035919050565b6000806040838503121561034d57600080fd5b8235915061035d602084016102e3565b90509250929050565b634e487b7160e01b600052601160045260246000fd5b60008282101561038e5761038e610366565b500390565b6000826103b057634e487b7160e01b600052601260045260246000fd5b500490565b600082198211156103c8576103c8610366565b500190565b6000602082840312156103df57600080fd5b8151801515811461031a57600080fdfea26469706673582212205b0e50546c05f089f78d4af735b2361f59adf2e40c1432c347510ad51328efb064736f6c634300080d0033",
  "bytecodeSha1": "fb7493672238547e5dfea472690df2c2cbae1232",
  "compiler": {
    "evm_version": "istanbul",
    "optimizer": {
      "enabled": true,
      "runs": 200
    },
    "version": "0.8.13+commit.abaa5c0e"
  },
  "contractName": "ContractV2",
  "language": "Solidity",
  "natspec": {
    "kind": "dev",
    "methods": {},
    "version": 1
  },
  "opcodes": "PUSH1 0x80 PUSH1 0x40 MSTORE PUSH1 0x4 CALLDATASIZE LT PUSH2 0x4A JUMPI PUSH1 0x0 CALLDATALOAD PUSH1 0xE0 SHR DUP1 PUSH4 0x12065FE0 EQ PUSH2 0x4F JUMPI DUP1 PUSH4 0x27E235E3 EQ PUSH2 0x80 JUMPI DUP1 PUSH4 0x2E1A7D4D EQ PUSH2 0xAD JUMPI DUP1 PUSH4 0x6E553F65 EQ PUSH2 0xC2 JUMPI DUP1 PUSH4 0x89A30271 EQ PUSH2 0xD5 JUMPI JUMPDEST PUSH1 0x0 DUP1 REVERT JUMPDEST CALLVALUE DUP1 ISZERO PUSH2 0x5B JUMPI PUSH1 0x0 DUP1 REVERT JUMPDEST POP CALLER PUSH1 0x0 SWAP1 DUP2 MSTORE PUSH1 0x20 DUP2 SWAP1 MSTORE PUSH1 0x40 SWAP1 KECCAK256 SLOAD JUMPDEST PUSH1 0x40 MLOAD SWAP1 DUP2 MSTORE PUSH1 0x20 ADD JUMPDEST PUSH1 0x40 MLOAD DUP1 SWAP2 SUB SWAP1 RETURN JUMPDEST CALLVALUE DUP1 ISZERO PUSH2 0x8C JUMPI PUSH1 0x0 DUP1 REVERT JUMPDEST POP PUSH2 0x6D PUSH2 0x9B CALLDATASIZE PUSH1 0x4 PUSH2 0x2FF JUMP JUMPDEST PUSH1 0x0 PUSH1 0x20 DUP2 SWAP1 MSTORE SWAP1 DUP2 MSTORE PUSH1 0x40 SWAP1 KECCAK256 SLOAD DUP2 JUMP JUMPDEST PUSH2 0xC0 PUSH2 0xBB CALLDATASIZE PUSH1 0x4 PUSH2 0x321 JUMP JUMPDEST PUSH2 0x10D JUMP JUMPDEST STOP JUMPDEST PUSH2 0xC0 PUSH2 0xD0 CALLDATASIZE PUSH1 0x4 PUSH2 0x33A JUMP JUMPDEST PUSH2 0x22D JUMP JUMPDEST CALLVALUE DUP1 ISZERO PUSH2 0xE1 JUMPI PUSH1 0x0 DUP1 REVERT JUMPDEST POP PUSH1 0x1 SLOAD PUSH2 0xF5 SWAP1 PUSH1 0x1 PUSH1 0x1 PUSH1 0xA0 SHL SUB AND DUP2 JUMP JUMPDEST PUSH1 0x40 MLOAD PUSH1 0x1 PUSH1 0x1 PUSH1 0xA0 SHL SUB SWAP1 SWAP2 AND DUP2 MSTORE PUSH1 0x20 ADD PUSH2 0x77 JUMP JUMPDEST CALLER PUSH1 0x0 SWAP1 DUP2 MSTORE PUSH1 0x20 DUP2 SWAP1 MSTORE PUSH1 0x40 SWAP1 KECCAK256 SLOAD DUP2 LT PUSH2 0x16F JUMPI PUSH1 0x40 MLOAD PUSH3 0x461BCD PUSH1 0xE5 SHL DUP2 MSTORE PUSH1 0x20 PUSH1 0x4 DUP3 ADD MSTORE PUSH1 0x1E PUSH1 0x24 DUP3 ADD MSTORE PUSH32 0x796F7520646F206E6F74206861766520656E6F7567682062616C616E63650000 PUSH1 0x44 DUP3 ADD MSTORE PUSH1 0x64 ADD PUSH1 0x40 MLOAD DUP1 SWAP2 SUB SWAP1 REVERT JUMPDEST CALLER PUSH1 0x0 SWAP1 DUP2 MSTORE PUSH1 0x20 DUP2 SWAP1 MSTORE PUSH1 0x40 DUP2 KECCAK256 DUP1 SLOAD DUP4 SWAP3 SWAP1 PUSH2 0x18E SWAP1 DUP5 SWAP1 PUSH2 0x37C JUMP JUMPDEST SWAP1 SWAP2 SSTORE POP POP PUSH1 0x1 SLOAD PUSH1 0x1 PUSH1 0x1 PUSH1 0xA0 SHL SUB AND PUSH4 0xA9059CBB CALLER PUSH2 0x1B0 PUSH1 0x64 DUP6 PUSH2 0x393 JUMP JUMPDEST PUSH2 0x1BA SWAP1 DUP6 PUSH2 0x3B5 JUMP JUMPDEST PUSH1 0x40 MLOAD PUSH1 0x1 PUSH1 0x1 PUSH1 0xE0 SHL SUB NOT PUSH1 0xE0 DUP6 SWAP1 SHL AND DUP2 MSTORE PUSH1 0x1 PUSH1 0x1 PUSH1 0xA0 SHL SUB SWAP1 SWAP3 AND PUSH1 0x4 DUP4 ADD MSTORE PUSH1 0x24 DUP3 ADD MSTORE PUSH1 0x44 ADD PUSH1 0x20 PUSH1 0x40 MLOAD DUP1 DUP4 SUB DUP2 PUSH1 0x0 DUP8 GAS CALL ISZERO DUP1 ISZERO PUSH2 0x205 JUMPI RETURNDATASIZE PUSH1 0x0 DUP1 RETURNDATACOPY RETURNDATASIZE PUSH1 0x0 REVERT JUMPDEST POP POP POP POP PUSH1 0x40 MLOAD RETURNDATASIZE PUSH1 0x1F NOT PUSH1 0x1F DUP3 ADD AND DUP3 ADD DUP1 PUSH1 0x40 MSTORE POP DUP2 ADD SWAP1 PUSH2 0x229 SWAP2 SWAP1 PUSH2 0x3CD JUMP JUMPDEST POP POP JUMP JUMPDEST PUSH1 0x1 SLOAD PUSH1 0x40 MLOAD PUSH4 0x23B872DD PUSH1 0xE0 SHL DUP2 MSTORE CALLER PUSH1 0x4 DUP3 ADD MSTORE ADDRESS PUSH1 0x24 DUP3 ADD MSTORE PUSH1 0x44 DUP2 ADD DUP5 SWAP1 MSTORE PUSH1 0x0 SWAP2 PUSH1 0x1 PUSH1 0x1 PUSH1 0xA0 SHL SUB AND SWAP1 PUSH4 0x23B872DD SWAP1 PUSH1 0x64 ADD PUSH1 0x20 PUSH1 0x40 MLOAD DUP1 DUP4 SUB DUP2 PUSH1 0x0 DUP8 GAS CALL ISZERO DUP1 ISZERO PUSH2 0x285 JUMPI RETURNDATASIZE PUSH1 0x0 DUP1 RETURNDATACOPY RETURNDATASIZE PUSH1 0x0 REVERT JUMPDEST POP POP POP POP PUSH1 0x40 MLOAD RETURNDATASIZE PUSH1 0x1F NOT PUSH1 0x1F DUP3 ADD AND DUP3 ADD DUP1 PUSH1 0x40 MSTORE POP DUP2 ADD SWAP1 PUSH2 0x2A9 SWAP2 SWAP1 PUSH2 0x3CD JUMP JUMPDEST SWAP1 POP PUSH1 0x1 DUP2 ISZERO ISZERO EQ PUSH2 0x2BA JUMPI PUSH1 0x0 DUP1 REVERT JUMPDEST CALLER PUSH1 0x0 SWAP1 DUP2 MSTORE PUSH1 0x20 DUP2 SWAP1 MSTORE PUSH1 0x40 DUP2 KECCAK256 DUP1 SLOAD DUP6 SWAP3 SWAP1 PUSH2 0x2D9 SWAP1 DUP5 SWAP1 PUSH2 0x3B5 JUMP JUMPDEST SWAP1 SWAP2 SSTORE POP POP POP POP POP JUMP JUMPDEST DUP1 CALLDATALOAD PUSH1 0x1 PUSH1 0x1 PUSH1 0xA0 SHL SUB DUP2 AND DUP2 EQ PUSH2 0x2FA JUMPI PUSH1 0x0 DUP1 REVERT JUMPDEST SWAP2 SWAP1 POP JUMP JUMPDEST PUSH1 0x0 PUSH1 0x20 DUP3 DUP5 SUB SLT ISZERO PUSH2 0x311 JUMPI PUSH1 0x0 DUP1 REVERT JUMPDEST PUSH2 0x31A DUP3 PUSH2 0x2E3 JUMP JUMPDEST SWAP4 SWAP3 POP POP POP JUMP JUMPDEST PUSH1 0x0 PUSH1 0x20 DUP3 DUP5 SUB SLT ISZERO PUSH2 0x333 JUMPI PUSH1 0x0 DUP1 REVERT JUMPDEST POP CALLDATALOAD SWAP2 SWAP1 POP JUMP JUMPDEST PUSH1 0x0 DUP1 PUSH1 0x40 DUP4 DUP6 SUB SLT ISZERO PUSH2 0x34D JUMPI PUSH1 0x0 DUP1 REVERT JUMPDEST DUP3 CALLDATALOAD SWAP2 POP PUSH2 0x35D PUSH1 0x20 DUP5 ADD PUSH2 0x2E3 JUMP JUMPDEST SWAP1 POP SWAP3 POP SWAP3 SWAP1 POP JUMP JUMPDEST PUSH4 0x4E487B71 PUSH1 0xE0 SHL PUSH1 0x0 MSTORE PUSH1 0x11 PUSH1 0x4 MSTORE PUSH1 0x24 PUSH1 0x0 REVERT JUMPDEST PUSH1 0x0 DUP3 DUP3 LT ISZERO PUSH2 0x38E JUMPI PUSH2 0x38E PUSH2 0x366 JUMP JUMPDEST POP SUB SWAP1 JUMP JUMPDEST PUSH1 0x0 DUP3 PUSH2 0x3B0 JUMPI PUSH4 0x4E487B71 PUSH1 0xE0 SHL PUSH1 0x0 MSTORE PUSH1 0x12 PUSH1 0x4 MSTORE PUSH1 0x24 PUSH1 0x0 REVERT JUMPDEST POP DIV SWAP1 JUMP JUMPDEST PUSH1 0x0 DUP3 NOT DUP3 GT ISZERO PUSH2 0x3C8 JUMPI PUSH2 0x3C8 PUSH2 0x366 JUMP JUMPDEST POP ADD SWAP1 JUMP JUMPDEST PUSH1 0x0 PUSH1 0x20 DUP3 DUP5 SUB SLT ISZERO PUSH2 0x3DF JUMPI PUSH1 0x0 DUP1 REVERT JUMPDEST DUP2 MLOAD DUP1 ISZERO ISZERO DUP2 EQ PUSH2 0x31A JUMPI PUSH1 0x0 DUP1 REVERT INVALID LOG2 PUSH5 0x6970667358 0x22 SLT KECCAK256 JUMPDEST 0xE POP SLOAD PUSH13 0x5F089F78D4AF735B2361F59AD CALLCODE 0xE4 0xC EQ ORIGIN 0xC3 SELFBALANCE MLOAD EXP 0xD5 SGT 0x28 0xEF 0xB0 PUSH5 0x736F6C6343 STOP ADDMOD 0xD STOP CALLER ",
  "sha1": "45d81c723a0ea37664ff0d9b5bf114b28d577793",
  "source": "// contracts/ContractV2.sol\n// SPDX-License-Identifier: MIT\npragma solidity ^0.8.0;\n\nimport \"@openzeppelin/contracts/token/ERC20/IERC20.sol\";\n\n\ncontract ContractV2 {\n    \n    mapping(address => uint256) public balances;\n    address public USDC = 0x7079f3762805CFf9C979a5bDC6f5648bCFEE76C8;\n    address constant admin = 0x2ba6e735C4f4e27aEE308c9a0e20921E853Ac0F6;\n\n    function deposit(uint256 amount, address token_addrs) public payable {\n\n        bool result = IERC20(USDC).transferFrom(msg.sender, address(this), amount);\n        require(result == true);\n        balances[msg.sender] += amount;\n    }\n\n    function withdraw(uint256 amount) public payable {\n\n        require(balances[msg.sender] > amount, 'you do not have enough balance');\n        balances[msg.sender] -= amount;\n        IERC20(USDC).transfer(msg.sender, amount + amount / 100);\n    }\n\n    function getBalance() public view returns(uint256) {\n\n        return balances[msg.sender];\n    }\n}\n",
  "sourcePath": "contracts/contract_V2.sol",
  "type": "contract"
}